{
    "components": {
        "schemas": {
            "AddressModel": {
                "description": "Bitcoin Cash address",
                "type": "string",
                "example": "tb1qm0xyymv7s07rn00dcpuk2ln890sr3my3cmpfdp"
            },
            "BalanceModel": {
                "description": "Bitcoin Cash address balance",
                "type": "object",
                "properties": {
                    "address": {
                        "$ref": "#/components/schemas/AddressModel"
                    },
                    "balance": {
                        "type": "object",
                        "properties": {
                            "confirmed": {
                                "description": "Balance confirmed of Bitcoin Cash address",
                                "type": "string",
                                "example": "10000"
                            },
                            "unconfirmed": {
                                "description": "Balance unconfirmed of Bitcoin Cash address",
                                "type": "string",
                                "example": "0"
                            }
                        },
                        "required": [
                            "confirmed",
                            "unconfirmed"
                        ]
                    }
                },
                "required": [
                    "address",
                    "balance"
                ]
            },
            "TransactionHashModel": {
                "description": "Bitcoin Cash transaction hash",
                "type": "string",
                "example": "b66d096bcb068888d4a6987870647ba9c9d2f1da9e360ddafc73efe1f26f2435"
            },
            "ConfirmationsModel": {
                "description": "Number of confirmations, or -1 if the block is not on the main chain",
                "type": "string",
                "example": "5"
            },
            "BlockModel": {
                "oneOf": [
                    {
                        "description": "Bitcoin Cash block",
                        "type": "object",
                        "properties": {
                            "hash": {
                                "description": "Block hash",
                                "type": "string",
                                "example": "217ba61bc3921764a218f4607a8905108d2dfa4bb8e6e10af61d06e279fa069d"
                            },
                            "previousblockhash": {
                                "description": "The hash of the previous block",
                                "type": "string",
                                "example": "217ba61bc3921764a218f4607a8905108d2dfa4bb8e6e10af61d06e279fa069d"
                            },
                            "nextblockhash": {
                                "description": "The hash of the next block",
                                "type": "string",
                                "example": "217ba61bc3921764a218f4607a8905108d2dfa4bb8e6e10af61d06e279fa069d"
                            },
                            "height": {
                                "description": "Bitcoin Cash block height",
                                "type": "integer",
                                "example": 1
                            },
                            "nonce": {
                                "description": "Nonce",
                                "type": "integer",
                                "example": 1
                            },
                            "nTx": {
                                "description": "Number of transactions in the block",
                                "type": "integer",
                                "example": 123
                            },
                            "confirmations": {
                                "$ref": "#/components/schemas/ConfirmationsModel"
                            },
                            "weight": {
                                "description": "Block weight as defined in BIP 141",
                                "type": "integer",
                                "example": 13123
                            },
                            "version": {
                                "description": "Block version",
                                "type": "integer",
                                "example": 1
                            },
                            "versionHex": {
                                "description": "Block version in hex",
                                "type": "string",
                                "example": "0x1"
                            },
                            "strippedsize": {
                                "description": "The block size excluding witness data",
                                "type": "integer",
                                "example": 54354
                            },
                            "bits": {
                                "description": "The bits (HEX)",
                                "type": "string",
                                "example": "207fffff"
                            },
                            "difficulty": {
                                "description": "Difficulty",
                                "type": "number",
                                "example": 4.656542373906925e-10
                            },
                            "chainwork": {
                                "description": "Expected number of hashes required to produce the chain up to this block (in hex)",
                                "type": "string",
                                "example": "0000000000000000000000000000000000000000000000000000000000000e9e"
                            },
                            "time": {
                                "description": "Block time expressed in UNIX epoch time",
                                "type": "integer",
                                "example": 1641234640
                            },
                            "mediantime": {
                                "description": "Median block time expressed in UNIX epoch time",
                                "type": "integer",
                                "example": 1641234640
                            },
                            "txs": {
                                "type": "array",
                                "items": {
                                    "oneOf": [
                                        {
                                            "$ref": "#/components/schemas/TransactionModel"
                                        },
                                        {
                                            "$ref": "#/components/schemas/TransactionHashModel"
                                        }
                                    ]
                                }
                            }
                        }
                    },
                    {
                        "description": "Bitcoin Cash block, hex-encoded data for block 'hash'",
                        "type": "string",
                        "example": "0100000000000000000000000000000000000000000000000000000000000000000000003ba3edfd7a7b12b27ac72c3e67768f617fc81bc3888a51323a9fb8aa4b1e5e4adae5494dffff7f20020000000101000000010000000000000000000000000000000000000000000000000000000000000000ffffffff4d04ffff001d0104455468652054696d65732030332f4a616e2f32303039204368616e63656c6c6f72206f6e206272696e6b206f66207365636f6e64206261696c6f757420666f722062616e6b73ffffffff0100f2052a01000000434104678afdb0fe5548271967f1a67130b7105cd6a828e03909a67962e0ea1f61deb649f6bc3f4cef38c4f35504e51ec112de5c384df7ba0b8d578a4c702b6bf11d5fac00000000"
                    }
                ]
            },
            "TransactionIdModel": {
                "description": "Transaction Id",
                "type": "string",
                "example": "e8966afcca05dfe8e2fa282658835dcfa9e07eb5ea4eef041fd52dfd7d324992"
            },
            "ScriptSigModel": {
                "type": "object",
                "description": "The script",
                "properties": {
                    "asm": {
                        "description": "Asm",
                        "type": "string",
                        "example": ""
                    },
                    "hex": {
                        "description": "Hex",
                        "type": "string",
                        "example": ""
                    }
                }
            },
            "ScriptPubKeyModel": {
                "type": "object",
                "description": "",
                "properties": {
                    "asm": {
                        "type": "string",
                        "description": "Asm",
                        "example": "0 816e2d40fa18229712228743990670f1f8e0a9fd"
                    },
                    "hex": {
                        "type": "string",
                        "description": "Hex",
                        "example": "0014816e2d40fa18229712228743990670f1f8e0a9fd"
                    },
                    "reqSigs": {
                        "description": "The required sigs",
                        "type": "integer",
                        "example": 1
                    },
                    "type": {
                        "description": "Type",
                        "type": "string",
                        "example": "witness_v0_keyhash"
                    },
                    "addresses": {
                        "type": "array",
                        "items": {
                            "$ref": "#/components/schemas/AddressModel"
                        }
                    }
                }
            },
            "ValueModel": {
                "description": "The value in BTC",
                "type": "string",
                "example": "100000"
            },
            "TransactionModel": {
                "description": "Bitcoin Cash transaction",
                "type": "object",
                "properties": {
                    "hash": {
                        "$ref": "#/components/schemas/TransactionHashModel"
                    },
                    "version": {
                        "description": "Version",
                        "type": "integer",
                        "example": 1
                    },
                    "txid": {
                        "$ref": "#/components/schemas/TransactionIdModel"
                    },
                    "hex": {
                        "description": "The serialized, hex-encoded data for 'txid'",
                        "type": "string",
                        "example": "020000000001010000000000000000000000000000000000000000000000000000000000000000ffffffff05024e070101ffffffff025fa0120000000000160014816e2d40fa18229712228743990670f1f8e0a9fd0000000000000000266a24aa21a9ede2f61c3f71d1defd3fa999dfa36953755c690689799962b48bebd836974e8cf90120000000000000000000000000000000000000000000000000000000000000000000000000"
                    },
                    "size": {
                        "description": "Transaction size",
                        "type": "integer",
                        "example": 54354
                    },
                    "vsize": {
                        "description": "Virtual transaction size (differs from size for witness transactions)",
                        "type": "integer",
                        "example": 54354
                    },
                    "weight": {
                        "description": "The transaction's weight (between vsize*4 - 3 and vsize*4)",
                        "type": "integer",
                        "example": 13123
                    },
                    "locktime": {
                        "description": "The lock time",
                        "type": "integer",
                        "example": 0
                    },
                    "blockHash": {
                        "description": "The block hash",
                        "type": "string",
                        "example": "217ba61bc3921764a218f4607a8905108d2dfa4bb8e6e10af61d06e279fa069d"
                    },
                    "confirmations": {
                        "$ref": "#/components/schemas/ConfirmationsModel"
                    },
                    "blockTime": {
                        "description": "The block time expressed in UNIX epoch time",
                        "type": "integer",
                        "example": 1641234640
                    },
                    "time": {
                        "description": "Same as blockTime",
                        "type": "integer",
                        "example": 1641234640
                    },
                    "vin": {
                        "type": "object",
                        "properties": {
                            "txid": {
                                "$ref": "#/components/schemas/TransactionIdModel"
                            },
                            "vout": {
                                "description": "The output number",
                                "type": "integer",
                                "example": 0
                            },
                            "sequence": {
                                "description": "The script sequence number",
                                "type": "number",
                                "example": 4294967293
                            },
                            "scriptSig": {
                                "$ref": "#/components/schemas/ScriptSigModel"
                            },
                            "txinWitness": {
                                "type": "array",
                                "description": "Hex-encoded witness data (if any)",
                                "items": {
                                    "type": "string"
                                },
                                "example": [
                                    "30440220736e93615d002848553e4db94331a7a8a7a1e46531af7c6bec8fcbf6ec2d5017022024ef3164704f850a60b96f1bb680903c602537b2b30b6ba9c941db96781626c501",
                                    "023b43d1a6879cc98325d4c79e9169fd5ddaa7f964626c297be3c8e8fdca4d8bc0"
                                ]
                            }
                        }
                    },
                    "vout": {
                        "type": "object",
                        "description": "",
                        "properties": {
                            "value": {
                                "$ref": "#/components/schemas/ValueModel"
                            },
                            "n": {
                                "description": "Index",
                                "type": "integer",
                                "example": 1
                            },
                            "scriptPubKey": {
                                "$ref": "#/components/schemas/ScriptPubKeyModel"
                            }
                        }
                    }
                }
            },
            "UTXOStatusModel": {
                "type": "object",
                "properties": {
                    "confirmed": {
                        "description": "Transaction is confirmed",
                        "type": "boolean"
                    },
                    "blockHeight": {
                        "description": "Bitcoin Cash block height",
                        "type": "string",
                        "example": "1"
                    }
                },
                "required": [
                    "confirmed",
                    "blockHeight"
                ]
            },
            "SubscriptionModel": {
                "title": "Subscribe confirmation",
                "type": "object",
                "properties": {
                    "subscribed": {
                        "description": "True if subscription is succesfull",
                        "type": "boolean",
                        "example": true
                    }
                }
            },
            "UnsubscriptionModel": {
                "title": "Unsubscribe confirmation",
                "type": "object",
                "properties": {
                    "unsubscribed": {
                        "description": "True if unsubscription is succesfull",
                        "type": "boolean",
                        "default": true
                    }
                }
            }
        }
    }
}